:020000040800F2
:105C0000005000209D6A00080D6900081369000813
:105C1000196900081F6900082569000800000000D4
:105C20000000000000000000000000002B690008D8
:105C30003769000800000000436900084F69000848
:105C4000E56A0008E56A0008E56A0008E56A0008F8
:105C5000E56A0008E56A0008E56A0008E56A0008E8
:105C6000E56A0008E56A0008E56A0008E56A0008D8
:105C7000E56A0008E56A0008E56A0008E56A0008C8
:105C8000E56A0008E56A00085D690008E56A000841
:105C9000E56A0008E56A0008E56A0008E56A0008A8
:105CA000E56A0008E56A0008E56A0008E56A000898
:105CB000E56A0008E56A0008E56A0008E56A000888
:105CC000E56A0008E56A0008E56A0008E56A000878
:105CD000E56A000871690008E56A0008E56A0008DD
:105CE00085690008E56A0008E56A00080000000010
:105CF00000000000000000000000000000000000A4
:0C5D000000000000000000005FF808F147
:105D0C0010B5054C237833B9044B13B10448AFF3E9
:105D1C0000800123237010BD7800002000000000DB
:105D2C00DCB2000808B5034B1BB103490348AFF3C1
:105D3C00008008BD000000007C000020DCB20008E0
:105D4C0080B483B000AF78604FF06043D3F8803EEE
:105D5C0003F00103002B13D04FF06043D3F8003E47
:105D6C0003F00103002B0BD000E000BF4FF06043A9
:105D7C001B68002BF9D04FF060437A68D2B21A70CE
:105D8C007B6818460C37BD4680BC704780B483B026
:105D9C0000AF78600B46FB701346BB707B68013319
:105DAC00FA781A70FB781B09DBB2002B11D07B68D8
:105DBC0002221A707B680233BA781A70FA78BB78B0
:105DCC001344DAB27B6803330232D2B21A70042362
:105DDC0009E07B6801221A707B680233FA78013281
:105DEC00D2B21A70032318460C37BD4680BC7047DC
:105DFC0080B485B000AF78600023FB8100237B73F7
:105E0C000AE07B7B7A6813441B789AB2FB891344B3
:105E1C00FB817B7B01337B737B681B787A7B9A429B
:105E2C00EFD97B7B7A6813441B789BB2FA899A4230
:105E3C0003D17B6801331B7800E00023184614372C
:105E4C00BD4680BC7047000080B500AF72B600BF85
:105E5C00144B154A9A6062B600BF00F045FE00F084
:105E6C0031F800F0B5F900F083F800F0BFF800F05D
:105E7C005BF900F083F90D4B5B6A19460C4804F092
:105E8C0051FA0C4801F0AAFA0A4800F085FF0021EB
:105E9C00094802F02BFF01220849094803F0B8FD1C
:105EAC00FEE700BF00ED00E0005C000800100240BF
:105EBC00F4B20008A800002020010020B00100204E
:105ECC00D800002080B594B000AF07F12803282239
:105EDC000021184604F01EFA07F1140300221A6080
:105EEC005A609A60DA601A613B1D00221A605A608F
:105EFC009A60DA600223BB620123BB631023FB634D
:105F0C0002237B640023BB640023FB6407F128039A
:105F1C00184602F0AFF80346002B01D000F0D6FB78
:105F2C000F237B610223BB610023FB614FF4806371
:105F3C003B6200237B6207F114030021184602F038
:105F4C0019FB0346002B01D000F0C0FB02237B6041
:105F5C000023FB603B1D184602F0A6FC0346002BF9
:105F6C0001D000F0B3FB00BF5037BD4680BD000030
:105F7C0080B584B000AF3B1D00221A605A609A6055
:105F8C00184B194A1A60174B00229A60154B0022C5
:105F9C001A73144B00221A75124B0022DA61114B42
:105FAC0000225A600F4B01221A610E4800F01CFEB1
:105FBC000346002B01D000F089FB00237B600123FA
:105FCC00BB600023FB603B1D1946064801F072F8CC
:105FDC000346002B01D000F079FB00BF1037BD4603
:105FEC0080BD00BFA80000200024014080B596B001
:105FFC0000AF07F1480300221A605A609A60DA6019
:10600C0007F1400300221A605A6007F124030022B2
:10601C001A605A609A60DA601A615A619A613B1D83
:10602C0020220021184604F075F93D4B3D4A1A60B8
:10603C003B4B41F63F725A60394B00229A60384B09
:10604C0040F2F312DA60364B00221A61344B002214
:10605C005A61334B00229A61314802F09FFD03468E
:10606C00002B01D000F032FB4FF48053BB6407F1DE
:10607C00480319462A4802F033FF0346002B01D08F
:10608C0000F024FB264802F0D8FD0346002B01D07B
:10609C0000F01CFB00233B6400237B6407F14003EE
:1060AC0019461F4803F084FA0346002B01D000F078
:1060BC000DFB30237B620023BB620023FB620023B9
:1060CC003B6300237B630023BB630023FB6307F16B
:1060DC00240300221946124802F0AAFE0346002BA4
:1060EC0001D000F0F3FA00237B600023BB60002397
:1060FC00FB6000233B6100237B614FF40053BB61C9
:10610C0000233B623B1D1946054803F0AFFA0346DA
:10611C00002B01D000F0DAFA00BF5837BD4680BD25
:10612C0020010020002C014080B500AF114B124A19
:10613C001A60104B4FF496625A600E4B00229A6014
:10614C000C4B0022DA600B4B00221A61094B0C221B
:10615C005A61084B00229A61064B0022DA6105480D
:10616C0003F0D5FA0346002B01D000F0AFFA00BFC4
:10617C0080BD00BFD80000200038014080B500AFC2
:10618C00114B124A1A60104B4FF4E1325A600E4B0D
:10619C0000229A600C4B0022DA600B4B00221A6131
:1061AC00094B0C225A61084B00229A61064B0022C3
:1061BC00DA61054803F0ABFA0346002B01D000F07E
:1061CC0085FA00BF80BD00BF68010020004400407C
:1061DC0080B588B000AF07F1100300221A605A6036
:1061EC009A60DA60384B9B69374A43F0100393612D
:1061FC00354B9B6903F01003FB60FB68324B9B69CA
:10620C00314A43F0200393612F4B9B6903F0200329
:10621C00BB60BB682C4B9B692B4A43F00403936116
:10622C00294B9B6903F004037B607B68264B9B69BD
:10623C00254A43F008039361234B9B6903F0080341
:10624C003B603B6800222021204801F0D9FE00224F
:10625C004FF480611E4801F0D3FE4FF400533B61B4
:10626C001C4B7B610023BB6107F1100319461A48D4
:10627C0001F042FD20233B6101237B610023BB61C4
:10628C000223FB6107F110031946104801F034FD9D
:10629C004FF480633B6101237B610023BB610223CC
:1062AC00FB6107F110031946094801F025FD002296
:1062BC000021282001F035FA282001F04EFA00BF09
:1062CC002037BD4680BD00BF0010024000080140D1
:1062DC00000C0140000011100010014080B58AB084
:1062EC0002AF7860AA4B1B8801339AB2A84B1A8074
:1062FC00A74B1B884FF6FF72934202D1A44B00228E
:10630C001A80A34B1B881946A24804F00BF8A24B29
:10631C001B78002B00F03781A0499F4B1B789BB258
:10632C0001339AB24FF4FA739D4803F0CFFA034647
:10633C00002B40F01781984B1B781946964B5B78D5
:10634C001A46954B9B781846914B1B880093034635
:10635C00944803F0E7FF9048FFF74AFD03461A46BE
:10636C00914B1A70904B1B78013B122B00F2E3807F
:10637C0001A252F823F000BFD16300081964000891
:10638C003D640008F5630008436500084365000898
:10639C004365000843650008B164000843650008C4
:1063AC004365000843650008436500084365000821
:1063BC0043650008436500084365000861640008F4
:1063CC0089640008794B1B781946794803F0AAFFB9
:1063DC00764B1B781A4611216F48FFF7D7FC034602
:1063EC001A46744B1A70B3E0734B1B7819467348FA
:1063FC0003F098FF704B1B781A4614216648FFF780
:10640C00C5FC03461A466B4B1A70A1E06C4B1B780B
:10641C0019466C4803F086FF694B1B781A4612210B
:10642C005D48FFF7B3FC03461A46624B1A708FE0C7
:10643C00654B1B781946654803F074FF624B1B785B
:10644C001A4613215448FFF7A1FC03461A46594B30
:10645C001A707DE0504B9A78594B1A70584B1B7838
:10646C0019465B4803F05EFF002205214A48FFF7FE
:10647C008DFC03461A464F4B1A7069E0464B9A78CE
:10648C00514B1A70504B1B781946524803F04AFF77
:10649C00002205214048FFF779FC03461A46454B7C
:1064AC001A7055E04C4803F0C3FF01F095FA002335
:1064BC00FB604A4B7B610123BB6107F10C0348492C
:1064CC00184601F071FB0346002B25D10923FB6113
:1064DC00FB691A464FF000034049022001F00CFA08
:1064EC000346002B0BD101F09DFA3E4803F0A0FFB0
:1064FC0000F010FB72B600BF01F03DF918E03A480D
:10650C0003F096FF002200212348FFF73FFC0346CF
:10651C001A46284B1A700BE0344803F089FF00220E
:10652C0000211D48FFF732FC03461A46214B1A7016
:10653C0001F078FA0CE02E4803F07AFF00220021DB
:10654C001548FFF723FC03461A461A4B1A7000BF76
:10655C00184B1B789AB24FF4FA730F49104803F09A
:10656C0023F90BE0234803F063FF002200210A48C3
:10657C00FFF70CFC03461A460E4B1A700122064913
:10658C00074803F045FA00BF2037BD4680BD00BF69
:10659C000000002004B30008B0010020B10100206D
:1065AC00D800002024B300081C0100209400002017
:1065BC0048B30008AC0100209500002068B3000827
:1065CC000200002084B3000803000020A0B30008E0
:1065DC00BCB30008DCB30008FCB30008008C010855
:1065EC009800002014B4000828B4000844B4000833
:1065FC0060B400086CB4000880B582B000AF78605D
:10660C00786800F07FFC03461B4AA2FB03235B095E
:10661C00DAB21A4B1A70194B1A78194B1B789A422A
:10662C000CD8184B1B78002B08D101224FF4806139
:10663C00154801F0E5FC134B01221A700F4B1A7828
:10664C00124B1B789A420CD30E4B1B78002B08D0A4
:10665C0000224FF480610C4801F0D2FC094B00225F
:10666C001A70064B1B781946094803F05BFE00BFF5
:10667C000837BD4680BD00BF1F85EB51940000203C
:10668C000200002095000020000C014003000020B7
:10669C0084B4000880B586B000AFF860B9607A6049
:1066AC0000237B6109E0BB685A1CBA601B78184652
:1066BC00FFF746FB7B6901337B617A697B689A4201
:1066CC00F1DB7B6818461837BD4680BD80B400AF3F
:1066DC0072B600BFFEE7000080B485B000AF154B6A
:1066EC009B69144A43F001039361124B9B6903F0BD
:1066FC000103BB60BB680F4BDB690E4A43F0805350
:10670C00D3610C4BDB6903F080537B607B680A4BD5
:10671C005B68FB60FB6823F0E063FB60FB6843F0A5
:10672C000073FB60044AFB68536000BF1437BD461E
:10673C0080BC7047001002400000014080B588B05A
:10674C0000AF786007F1100300221A605A609A605B
:10675C00DA607B681B68184A934229D1174B9B69F6
:10676C00164A43F400739361144B9B6903F4007352
:10677C00FB60FB68114B9B69104A43F00403936167
:10678C000E4B9B6903F00403BB60BB6801233B61A8
:10679C0003237B6107F110031946094801F0ACFA99
:1067AC0000220021122000F0BCFF122000F0D5FFC7
:1067BC0000BF2037BD4680BD0024014000100240C0
:1067CC000008014080B485B000AF78607B681B681E
:1067DC00094A93420BD1094B9B69084A43F4006365
:1067EC009361064B9B6903F40063FB60FB6800BF7D
:1067FC001437BD4680BC7047002C0140001002408D
:10680C0080B58AB000AF786007F1180300221A60D7
:10681C005A609A60DA607B681B68354A93423AD1B9
:10682C00344B9B69334A43F480439361314B9B69EE
:10683C0003F480437B617B692E4B9B692D4A43F0AB
:10684C00040393612B4B9B6903F004033B613B698D
:10685C004FF40073BB610223FB6103237B6207F1DE
:10686C0018031946244801F047FA4FF48063BB61C2
:10687C000023FB6100233B6207F1180319461E48F5
:10688C0001F03AFA00220021252000F04AFF2520D1
:10689C0000F063FF28E07B681B68184A934223D101
:1068AC00144BDB69134A43F40033D361114BDB699E
:1068BC0003F40033FB60FB680E4B9B690D4A43F0FD
:1068CC00040393610B4B9B6903F00403BB60BB682F
:1068DC000C23BB610223FB6102237B6207F11803CB
:1068EC001946054801F008FA00BF2837BD4680BD9F
:1068FC0000380140001002400008014000440040F4
:10690C0080B400AFFEE780B400AFFEE780B400AF08
:10691C00FEE780B400AFFEE780B400AFFEE780B4C2
:10692C0000AF00BFBD4680BC704780B400AF00BF55
:10693C00BD4680BC704780B400AF00BFBD4680BC74
:10694C00704780B500AF00F033F900BF80BD000088
:10695C0080B500AF024800F0E1FA00BF80BD00BF77
:10696C00A800002080B500AF024803F081F800BFFA
:10697C0080BD00BFD800002080B500AF4FF40050A0
:10698C0001F056FB00BF80BD80B586B000AFF8604B
:10699C00B9607A6000237B610AE0AFF300800146A6
:1069AC00BB685A1CBA60CAB21A707B6901337B612E
:1069BC007A697B689A42F0DB7B6818461837BD46CB
:1069CC0080BD80B483B000AF78604FF0FF331846C1
:1069DC000C37BD4680BC704780B483B000AF786084
:1069EC0039603B684FF400525A60002318460C374C
:1069FC00BD4680BC704780B483B000AF7860012383
:106A0C0018460C37BD4680BC704780B485B000AFCB
:106A1C00F860B9607A60002318461437BD4680BC14
:106A2C007047000080B586B000AF7860144A154BF3
:106A3C00D31A7B617B693B61134B1B68002B02D122
:106A4C00114B124A1A60104B1A687B6813443A694E
:106A5C009A4207D203F034FC03460C221A604FF022
:106A6C00FF3309E0084B1B68FB60074B1A687B6817
:106A7C001344054A1360FB6818461837BD4680BDA1
:106A8C0000500020000400009C000020F0010020B9
:106A9C000C480D490D4A002302E0D458C45004336D
:106AAC00C4188C42F9D30A4A0A4C002301E0136043
:106ABC000432A242FBD300F010F803F007FCFFF7FE
:106ACC00C3F9704700000020740000206CB500086A
:106ADC0078000020F0010020FEE780B400AF00BF7A
:106AEC00BD4680BC7047000080B500AF084B1B68EA
:106AFC00074A43F010031360032000F007FE002048
:106B0C0000F026F8FFF7E8FD0023184680BD00BF13
:106B1C000020024080B500AF094B4FF0FF32DA6025
:106B2C00074B00221A61064B4FF0FF32DA60044B20
:106B3C000022DA6000F006F80023184680BD00BF82
:106B4C000010024080B400AF00BFBD4680BC70474F
:106B5C0080B582B000AF7860124B1A68124B1B786C
:106B6C0019464FF47A73B3FBF1F3B2FBF3F3184607
:106B7C0000F005FE0346002B01D001230EE07B68DC
:106B8C000F2B0AD8002279684FF0FF3000F0C9FDB6
:106B9C00064A7B681360002300E00123184608377F
:106BAC00BD4680BD040000200C0000200800002021
:106BBC0080B400AF054B1B781A46054B1B68134479
:106BCC00034A136000BFBD4680BC70470C00002018
:106BDC00B801002080B400AF024B1B681846BD46BC
:106BEC0080BC7047B801002080B586B000AF7860DB
:106BFC000023FB7500233B610023BB600023FB607B
:106C0C007B68002B01D10123BEE07B689B68002BC5
:106C1C007B689B6A002B09D17B680022DA627B6857
:106C2C00002283F824207868FFF788FD786800F04C
:106C3C0093FB0346FB757B689B6A03F01003002BE8
:106C4C0040F09980FB7D002B40F095807B689B6A1F
:106C5C0023F4885323F0020343F002027B689A6208
:106C6C007B685A687B68DB691A437B681B7B5B001B
:106C7C001343BA681343BB607B689B68B3F5807F92
:106C8C0003D07B689B68012B02D14FF4807300E02A
:106C9C0000233A6913433B617B681B7D012B19D19F
:106CAC007B681B7B002B09D17B689B69013B5A03DA
:106CBC003B69134343F400633B610BE07B689B6AC5
:106CCC0043F020027B689A627B68DB6A43F0010226
:106CDC007B68DA627B681B685B6823F469417B68BC
:106CEC001B683A690A435A607B681B689A68284B90
:106CFC0013407A681268B9680B4393607B689B6891
:106D0C00B3F5807F03D07B689B68012B04D17B6833
:106D1C001B69013B1B05FB607B681B68DB6A23F46A
:106D2C0070017B681B68FA680A43DA627B681B682F
:106D3C009A68184B1340BA689A420BD17B680022B0
:106D4C00DA627B689B6A23F0030343F001027B68E1
:106D5C009A6218E07B689B6A23F0120343F01002DE
:106D6C007B689A627B68DB6A43F001027B68DA62BB
:106D7C000123FB7507E07B689B6A43F010027B687C
:106D8C009A620123FB75FB7D18461837BD4680BD02
:106D9C00FDF7E1FFFE0E1FFF80B584B000AF7860F9
:106DAC000023FB737B6893F82430012B01D1022361
:106DBC00A0E07B68012283F82420786800F072FA46
:106DCC000346FB73FB7B002B40F08F807B689B6A38
:106DDC0023F4706323F0010343F480727B689A629E
:106DEC007B681B68454A934205D1454B5B6803F4AD
:106DFC007023002B15D17B689B6A23F480127B686F
:106E0C009A627B681B685B6803F48063002B26D056
:106E1C007B689B6A23F4405343F480527B689A62EC
:106E2C001DE07B689B6A43F480127B689A627B68E6
:106E3C001B68334A934204D07B681B682F4A9342E9
:106E4C000DD12F4B5B6803F48063002B07D07B685C
:106E5C009B6A23F4405343F480527B689A627B68AC
:106E6C009B6A03F48053002B06D07B68DB6A23F00B
:106E7C0006027B68DA6202E07B680022DA627B68D9
:106E8C00002283F824207B681B686FF002021A60D2
:106E9C007B681B685A687B681B6842F020025A604A
:106EAC007B681B689B6803F46023B3F5602F13D1D8
:106EBC007B681B68114A934205D1114B5B6803F444
:106ECC007023002B08D17B681B689A687B681B6851
:106EDC0042F4A0029A600CE07B681B689A687B689D
:106EEC001B6842F480129A6003E07B68002283F8EE
:106EFC002420FB7B18461037BD4680BD002801407E
:106F0C000024014080B483B000AF78607B681B68BC
:106F1C00DB6C18460C37BD4680BC704780B582B020
:106F2C0000AF78607B681B685B6803F02003202B44
:106F3C0040D17B681B681B6803F00203022B39D11C
:106F4C007B689B6A03F01003002B05D17B689B6A5E
:106F5C0043F400727B689A627B681B689B6803F43D
:106F6C006023B3F5602F1DD17B681B7B002B19D1DF
:106F7C007B681B685A687B681B6822F020025A6089
:106F8C007B689B6A23F480727B689A627B689B6A3D
:106F9C0003F48053002B05D17B689B6A43F00102FC
:106FAC007B689A627868FFF727FB7B681B686FF039
:106FBC0012021A607B681B685B6803F08003802BED
:106FCC004FD17B681B681B6803F00403042B48D16A
:106FDC007B689B6A03F01003002B05D17B689B6ACE
:106FEC0043F400527B689A627B681B689B6803F4CD
:106FFC00E043B3F5E04F12D07B681B685B6803F489
:10700C008063002B25D17B681B689B6803F460238D
:10701C00B3F5602F1DD17B681B7B002B19D17B68CE
:10702C001B685A687B681B6822F080025A607B6878
:10703C009B6A23F480527B689A627B689B6A03F498
:10704C008073002B05D17B689B6A43F001027B683F
:10705C009A62786800F06EFA7B681B686FF00C021D
:10706C001A607B681B685B6803F04003402B14D1EB
:10707C007B681B681B6803F00103012B0DD17B6837
:10708C009B6A43F480327B689A62786800F009F856
:10709C007B681B686FF001021A6000BF0837BD46A1
:1070AC0080BD80B483B000AF786000BF0C37BD46A4
:1070BC0080BC704780B485B000AF78603960002325
:1070CC00FB730023BB607B6893F82430012B01D148
:1070DC000223DCE07B68012283F824203B685B6898
:1070EC00062B1CD87B681B68596B3B685A68134687
:1070FC009B001344053B1F2202FA03F3DB431940A8
:10710C003B6818683B685A6813469B001344053B60
:10711C0000FA03F27B681B680A435A633CE03B6845
:10712C005B680C2B1CD87B681B68196B3B685A6816
:10713C0013469B001344233B1F2202FA03F3DB4349
:10714C0019403B6818683B685A6813469B00134407
:10715C00233B00FA03F27B681B680A431A631BE0AB
:10716C007B681B68D96A3B685A6813469B001344BA
:10717C00413B1F2202FA03F3DB4319403B681868BA
:10718C003B685A6813469B001344413B00FA03F2D8
:10719C007B681B680A43DA623B681B68092B1CD9A5
:1071AC007B681B68D9683B681A6813465B001344FC
:1071BC001E3B072202FA03F3DB4319403B68986835
:1071CC003B681A6813465B0013441E3B00FA03F23B
:1071DC007B681B680A43DA6019E07B681B681969D5
:1071EC003B681A6813465B001344072202FA03F348
:1071FC00DB4319403B6898683B681A6813465B0090
:10720C00134400FA03F27B681B680A431A613B685B
:10721C001B68102B03D03B681B68112B32D17B6889
:10722C001B681D4A934225D17B681B689B6803F43D
:10723C000003002B26D17B681B689A687B681B684F
:10724C0042F400029A603B681B68102B1AD1134B56
:10725C001B68134AA2FB03239A0C13469B0013448E
:10726C005B00BB6002E0BB68013BBB60BB68002BF2
:10727C00F9D107E07B689B6A43F020027B689A6235
:10728C000123FB737B68002283F82420FB7B1846C8
:10729C001437BD4680BC7047002401400400002018
:1072AC0083DE1B4380B584B000AF78600023FB60A5
:1072BC000023BB607B681B689B6803F00103012BF8
:1072CC0040D07B681B689A687B681B6842F001029F
:1072DC009A601F4B1B681F4AA2FB03239B0CBB60CD
:1072EC0002E0BB68013BBB60BB68002BF9D1FFF728
:1072FC0071FCF8601FE0FFF76DFC0246FB68D31AC7
:10730C00022B18D97B681B689B6803F00103012BC7
:10731C0011D07B689B6A43F010027B689A627B6891
:10732C00DB6A43F001027B68DA627B68002283F837
:10733C002420012307E07B681B689B6803F0010392
:10734C00012BD8D1002318461037BD4680BD00BF95
:10735C000400002083DE1B4380B584B000AF78604E
:10736C000023FB607B681B689B6803F00103012B07
:10737C002ED17B681B689A687B681B6822F001021F
:10738C009A60FFF727FCF8601BE0FFF723FC02462E
:10739C00FB68D31A022B14D97B681B689B6803F01B
:1073AC000103012B0DD17B689B6A43F010027B68B3
:1073BC009A627B68DB6A43F001027B68DA62012324
:1073CC0007E07B681B689B6803F00103012BDCD092
:1073DC00002318461037BD4680BD000090B587B01D
:1073EC0000AF78600023FB750023FB607B6893F88B
:1073FC002430012B01D1022395E07B68012283F814
:10740C0024207868FFF7A8FF0346FB75FB7D002B53
:10741C0040F084807B689B6A23F4885323F002033A
:10742C0043F002027B689A62414B1C68022001F017
:10743C00F1FA0346B4FBF3F35B00FB6002E0FB687C
:10744C00013BFB60FB68002BF9D17868FFF72AFF42
:10745C007B681B689A687B681B6842F008029A601C
:10746C00FFF7B8FB38611BE0FFF7B4FB02463B6942
:10747C00D31A0A2B14D97B681B689B6803F008038A
:10748C00002B0DD07B689B6A23F0120343F0100293
:10749C007B689A627B68002283F82420012342E0F7
:1074AC007B681B689B6803F00803002BDCD17B68AE
:1074BC001B689A687B681B6842F004029A60FFF7AD
:1074CC0089FB38611BE0FFF785FB02463B69D31A49
:1074DC000A2B14D97B681B689B6803F00403002BF0
:1074EC000DD07B689B6A23F0120343F010027B687B
:1074FC009A627B68002283F82420012313E07B68C6
:10750C001B689B6803F00403002BDCD17B689B6A2F
:10751C0023F0030343F001027B689A627B6800222C
:10752C0083F82420FB7D18461C37BD4690BD00BF58
:10753C000400002080B483B000AF786000BF0C372B
:10754C00BD4680BC7047000080B485B000AF786049
:10755C007B6803F00703FB600C4BDB68BB60BA680D
:10756C004FF6FF031340BB60FB681A02BB68134362
:10757C0043F0BF6343F40033BB60044ABB68D36081
:10758C0000BF1437BD4680BC704700BF00ED00E063
:10759C0080B400AF044BDB681B0A03F007031846EA
:1075AC00BD4680BC704700BF00ED00E080B483B0E6
:1075BC0000AF0346FB7197F90730002B0BDBFB790F
:1075CC0003F01F02064997F907305B09012000FA06
:1075DC0002F241F8232000BF0C37BD4680BC704737
:1075EC0000E100E080B483B000AF03463960FB716A
:1075FC0097F90730002B0ADB3B68DAB20C4997F994
:10760C0007301201D2B20B4483F800230AE03B6826
:10761C00DAB20849FB7903F00F03043B1201D2B232
:10762C000B441A7600BF0C37BD4680BC704700BFB8
:10763C0000E100E000ED00E080B489B000AFF8603C
:10764C00B9607A60FB6803F00703FB61FB69C3F167
:10765C000703042B28BF0423BB61FB690433062BEF
:10766C0002D9FB69033B00E000237B614FF0FF3242
:10767C00BB6902FA03F3DA43BB681A407B699A4090
:10768C004FF0FF317B6901FA03F3D9437B680B4060
:10769C00134318462437BD4680BC704780B400AFF6
:1076AC00BFF34F8F00BF064BDB6803F4E062044965
:1076BC00044B1343CB60BFF34F8F00BF00BFFDE7FC
:1076CC0000ED00E00400FA0580B582B000AF7860F0
:1076DC007B68013BB3F1807F01D301230FE00A4AA1
:1076EC007B68013B53600F214FF0FF30FFF77AFFAF
:1076FC00054B00229A60044B07221A60002318469F
:10770C000837BD4680BD00BF10E000E080B582B0F8
:10771C0000AF78607868FFF717FF00BF0837BD46E9
:10772C0080BD80B586B000AF0346B9607A60FB734C
:10773C0000237B61FFF72CFF78617A68B968786960
:10774C00FFF77AFF024697F90F3011461846FFF7FC
:10775C0049FF00BF1837BD4680BD80B582B000AF71
:10776C000346FB7197F907301846FFF71FFF00BF60
:10777C000837BD4680BD80B500AFFFF78FFF80B5E1
:10778C0082B000AF78607868FFF79EFF034618461A
:10779C000837BD4680BD80B485B000AF786000234B
:1077AC00FB737B6893F82130022B08D07B68042292
:1077BC009A637B68002283F82020012320E07B68F9
:1077CC001B681A687B681B6822F00E021A607B68C3
:1077DC001B681A687B681B6822F001021A607B68C0
:1077EC001A6C7B68DB6B012101FA02F25A607B6830
:1077FC00012283F821207B68002283F82020FB7B68
:10780C0018461437BD4680BC7047000080B584B064
:10781C0000AF78600023FB737B6893F82130022B58
:10782C0005D07B6804229A630123FB7351E07B68CB
:10783C001B681A687B681B6822F00E021A607B6852
:10784C001B681A687B681B6822F001021A607B684F
:10785C001B68224A934229D07B681B68204A9342BA
:10786C0022D07B681B681F4A93421AD07B681B6826
:10787C001D4A934212D07B681B681C4A93420AD063
:10788C007B681B681A4A934202D14FF480130EE0B6
:10789C004FF080730BE04FF4803308E04FF48053CB
:1078AC0005E04FF4807302E0102300E00123114A3D
:1078BC0053607B68012283F821207B68002283F8C7
:1078CC0020207B685B6B002B03D07B685B6B78683C
:1078DC009847FB7B18461037BD4680BD0800024018
:1078EC001C0002403000024044000240580002409C
:1078FC006C00024000000240F0B587B000AFF860A9
:10790C00B960C7E900230123FB750023BB75002375
:10791C007B752F4B1B7E012B01D1022354E02C4B8A
:10792C0001221A764CF2503000F0A8F80346FB7591
:10793C00FB7D002B44D1FB68012B02D101237B750D
:10794C0007E0FB68022B02D102237B7501E00423C4
:10795C007B750023BB752DE0BB7D5A00BB6802EB29
:10796C00030CBB7D1901D7E90023C1F12006A1F15D
:10797C00200022FA01F403FA06F6344323FA00F04D
:10798C00044323FA01F5A3B21946604600F05AF8F5
:10799C004CF2503000F072F80346FB750D4B1B692E
:1079AC000C4A23F001031361FB7D002B07D1BB7D37
:1079BC000133BB75BA7D7B7D9A42CDD300E000BF0D
:1079CC00034B00221A76FB7D18461C37BD46F0BDD2
:1079DC00C00100200020024080B483B000AF00231F
:1079EC00FB710D4B1B6903F08003002B0DD00A4B70
:1079FC000A4A5A60084B0A4A5A60074B1B6903F043
:107A0C008003002B01D00123FB71FB7918460C3746
:107A1C00BD4680BC704700BF002002402301674573
:107A2C00AB89EFCD80B400AF054B1B69044A43F022
:107A3C008003136100231846BD4680BC704700BF0D
:107A4C000020024080B483B000AF78600B467B808E
:107A5C00084B0022DA61084B1B69074A43F001030B
:107A6C0013617B687A881A8000BF0C37BD4680BCD6
:107A7C00704700BFC00100200020024080B584B0D8
:107A8C0000AF7860FFF7A6F8F86010E07B68B3F100
:107A9C00FF3F0CD07B68002B07D0FFF79BF802460A
:107AAC00FB68D31A7A689A4201D2032325E0154B5E
:107ABC00DB6803F00103002BE8D1124BDB6803F009
:107ACC002003002B02D00F4B2022DA600D4BDB6819
:107ADC0003F01003002B0BD10A4BDB6903F00103FD
:107AEC00002B05D1074BDB6803F00403002B03D0FC
:107AFC0000F00AF8012300E0002318461037BD46B9
:107B0C0080BD00BF0020024080B483B000AF0023D2
:107B1C007B60234BDB6803F01003002B09D0214B57
:107B2C00DB6943F002031F4AD3617B6843F0100307
:107B3C007B601B4BDB6803F00403002B09D0194B53
:107B4C00DB6943F00103174AD3617B6843F00403FC
:107B5C007B60134BDB6903F00103002B0BD0114B43
:107B6C00DB6943F004030F4AD3610D4BDB690C4A0C
:107B7C0023F00103D3617B6840F20112934206D1DA
:107B8C00074BDB69064A23F00103D36102E0044A88
:107B9C007B68D36000BF0C37BD4680BC704700BF0C
:107BAC0000200240C001002080B584B000AF786096
:107BBC0039600123FB730023BB602F4B1B7E012B11
:107BCC0001D1022353E02C4B01221A767B681B68EF
:107BDC00022B16D14CF25030FFF750FF0346002B0E
:107BEC0041D1012000F04CF84CF25030FFF746FF29
:107BFC000346FB73214B1B69204A23F004031361DA
:107C0C0031E04CF25030FFF739FF0346002B2AD1FC
:107C1C003B684FF0FF321A607B689B68BB6019E0D1
:107C2C00B86800F049F84CF25030FFF727FF0346D4
:107C3C00FB73124B1B69114A23F002031361FB7B8C
:107C4C00002B03D03B68BA681A600CE0BB6803F5E4
:107C5C008063BB607B68DB689A027B689B6813441B
:107C6C00BA689A42DCD3044B00221A76FB7B184686
:107C7C001037BD4680BD00BFC0010020002002406F
:107C8C0080B483B000AF7860094B0022DA61094BF5
:107C9C001B69084A43F004031361064B1B69054A30
:107CAC0043F04003136100BF0C37BD4680BC7047E6
:107CBC00C00100200020024080B483B000AF786087
:107CCC000B4B0022DA610B4B1B690A4A43F002038F
:107CDC001361084A7B685361064B1B69054A43F0E4
:107CEC004003136100BF0C37BD4680BC704700BF1A
:107CFC00C00100200020024080B48BB000AF78603F
:107D0C00396000237B6200233B6269E101227B6ABC
:107D1C0002FA03F3FB613B681B68FA691340BB6111
:107D2C00BA69FB699A4240F058813B685B689A4A91
:107D3C0093425ED0984A934275D8984A934258D051
:107D4C00964A93426FD8964A934252D0944A9342A1
:107D5C0069D8944A93424CD0924A934263D8924A3F
:107D6C00934246D0904A93425DD8122B2AD8122BBC
:107D7C0059D801A252F823F0FF7D0008D97D0008E4
:107D8C00EB7D00082D7E0008337E0008337E000852
:107D9C00337E0008337E0008337E0008337E0008F3
:107DAC00337E0008337E0008337E0008337E0008E3
:107DBC00337E0008337E0008337E0008E17D000826
:107DCC00F57D0008794A934213D02CE03B68DB68C0
:107DDC003B6229E03B68DB6804333B6224E03B6890
:107DEC00DB6808333B621FE03B68DB680C333B62AB
:107DFC001AE03B689B68002B02D104233B6213E022
:107E0C003B689B68012B05D108233B627B68FA69B0
:107E1C001A6109E008233B627B68FA695A6103E046
:107E2C0000233B6200E000BFBB69FF2B01D87B68DD
:107E3C0001E07B6804337B61BB69FF2B02D87B6A52
:107E4C009B0002E07B6A083B9B003B617B691A68E4
:107E5C000F213B6901FA03F3DB431A40396A3B6992
:107E6C0001FA03F31A437B691A603B685B6803F001
:107E7C008053002B00F0B1804D4B9B694C4A43F072
:107E8C00010393614A4B9B6903F00103BB60BB6820
:107E9C00484A7B6A9B08023352F82330FB607B6AAA
:107EAC0003F003039B000F2202FA03F3DB43FA688F
:107EBC001340FB607B68404A934213D07B683F4A77
:107ECC0093420DD07B683E4A934207D07B683D4A73
:107EDC00934201D1032306E0042304E0022302E0D1
:107EEC00012300E000237A6A02F00302920093401F
:107EFC00FA681343FB602F497B6A9B080233FA68CC
:107F0C0041F823203B685B6803F48033002B06D0D8
:107F1C002D4B1A682C49BB6913430B6006E02A4BA6
:107F2C001A68BB69DB43284913400B603B685B68EC
:107F3C0003F40033002B06D0234B5A682249BB694B
:107F4C0013434B6006E0204B5A68BB69DB431E4968
:107F5C0013404B603B685B6803F48013002B06D026
:107F6C00194B9A681849BB6913438B6006E0164B92
:107F7C009A68BB69DB43144913408B603B685B68B0
:107F8C0003F40013002B21D00F4BDA680E49BB69A8
:107F9C001343CB6021E000BF000032100000311011
:107FAC00000022100000211000001210000011101F
:107FBC00001002400000014000080140000C01408C
:107FCC000010014000140140000401400B4BDA6822
:107FDC00BB69DB4309491340CB607B6A01337B628D
:107FEC003B681A687B6A22FA03F3002B7FF48EAE8F
:107FFC0000BF00BF2C37BD4680BC70470004014059
:10800C0080B483B000AF78600B467B8013467B70E6
:10801C007B78002B03D07A887B681A6103E07B881D
:10802C001A047B681A6100BF0C37BD4680BC7047D0
:10803C0080B582B000AF0346FB80084B5A69FB88C1
:10804C001340002B06D0054AFB885361FB88184669
:10805C0000F006F800BF0837BD4680BD00040140A3
:10806C0080B483B000AF0346FB8000BF0C37BD4625
:10807C0080BC704780B586B000AF78607B68002B01
:10808C0001D101236CE27B681B6803F00103002B18
:10809C0000F08780924B5B6803F00C03042B0CD030
:1080AC008F4B5B6803F00C03082B12D18C4B5B6875
:1080BC0003F48033B3F5803F0BD1894B1B6803F479
:1080CC000033002B6CD07B685B68002B68D10123DC
:1080DC0046E27B685B68B3F5803F06D1804B1B683A
:1080EC007F4A43F4803313602EE07B685B68002B7F
:1080FC000CD17B4B1B687A4A23F480331360784B8A
:10810C001B68774A23F4802313601DE07B685B684F
:10811C00B3F5A02F0CD1724B1B68714A43F480232A
:10812C0013606F4B1B686E4A43F4803313600BE093
:10813C006B4B1B686A4A23F480331360684B1B68D3
:10814C00674A23F4802313607B685B68002B13D091
:10815C00FEF740FD386108E0FEF73CFD02463B6946
:10816C00D31A642B01D90323FAE15D4B1B6803F48A
:10817C000033002BF0D014E0FEF72CFD386108E042
:10818C00FEF728FD02463B69D31A642B01D9032361
:10819C00E6E1534B1B6803F40033002BF0D100E0F5
:1081AC0000BF7B681B6803F00203002B63D04C4BB1
:1081BC005B6803F00C03002B0BD0494B5B6803F09E
:1081CC000C03082B1CD1464B5B6803F48033002B4B
:1081DC0016D1434B1B6803F00203002B05D07B68C0
:1081EC001B69012B01D00123BAE13D4B1B6823F025
:1081FC00F8027B685B69DB00394913430B603AE09A
:10820C007B681B69002B20D0364B01221A60FEF7CD
:10821C00E1FC386108E0FEF7DDFC02463B69D31A4D
:10822C00022B01D903239BE12D4B1B6803F00203A6
:10823C00002BF0D02A4B1B6823F0F8027B685B699B
:10824C00DB00274913430B6015E0264B00221A6014
:10825C00FEF7C0FC386108E0FEF7BCFC02463B6947
:10826C00D31A022B01D903237AE11D4B1B6803F0AF
:10827C000203002BF0D17B681B6803F00803002B72
:10828C003AD07B689B69002B19D0174B01221A60DE
:10829C00FEF7A0FC386108E0FEF79CFC02463B6947
:1082AC00D31A022B01D903235AE10D4B5B6A03F05D
:1082BC000203002BF0D0012000F0D8FA1CE00A4B8E
:1082CC0000221A60FEF786FC38610FE0FEF782FC94
:1082DC0002463B69D31A022B08D9032340E100BFA5
:1082EC000010024000004242800442429E4B5B6AF6
:1082FC0003F00203002BE9D17B681B6803F0040335
:10830C00002B00F0A6800023FB75974BDB6903F074
:10831C008053002B0DD1944BDB69934A43F080536F
:10832C00D361914BDB6903F08053BB60BB680123C5
:10833C00FB758E4B1B6803F48073002B18D18B4B91
:10834C001B688A4A43F480731360FEF743FC386160
:10835C0008E0FEF73FFC02463B69D31A642B01D9B7
:10836C000323FDE0814B1B6803F48073002BF0D0DA
:10837C007B68DB68012B06D17B4B1B6A7A4A43F086
:10838C00010313622DE07B68DB68002B0CD1764B6C
:10839C001B6A754A23F001031362734B1B6A724A02
:1083AC0023F0040313621CE07B68DB68052B0CD103
:1083BC006D4B1B6A6C4A43F0040313626A4B1B6AD5
:1083CC00694A43F0010313620BE0674B1B6A664A70
:1083DC0023F001031362644B1B6A634A23F004030A
:1083EC0013627B68DB68002B15D0FEF7F3FB38615A
:1083FC000AE0FEF7EFFB02463B69D31A41F28832E2
:10840C00934201D90323ABE0574B1B6A03F00203E1
:10841C00002BEED014E0FEF7DDFB38610AE0FEF72E
:10842C00D9FB02463B69D31A41F28832934201D9F7
:10843C00032395E04C4B1B6A03F00203002BEED197
:10844C00FB7D012B05D1484BDB69474A23F0805358
:10845C00D3617B68DB69002B00F08180424B5B6849
:10846C0003F00C03082B61D07B68DB69022B46D12F
:10847C003F4B00221A60FEF7ADFB386108E0FEF7B7
:10848C00A9FB02463B69D31A022B01D9032367E0EF
:10849C00354B1B6803F00073002BF0D17B681B6A13
:1084AC00B3F5803F08D1304B5B6823F400327B6816
:1084BC009B682D4913434B602B4B5B6823F4741260
:1084CC007B68196A7B685B6A0B43274913434B60D3
:1084DC00274B01221A60FEF77DFB386108E0FEF79E
:1084EC0079FB02463B69D31A022B01D9032337E0EF
:1084FC001D4B1B6803F00073002BF0D02FE01C4BBE
:10850C0000221A60FEF766FB386108E0FEF762FB9A
:10851C0002463B69D31A022B01D9032320E0124BEC
:10852C001B6803F00073002BF0D118E07B68DB694B
:10853C00012B01D1012313E00B4B5B68FB60FB6843
:10854C0003F480327B681B6A9A4206D1FB6803F401
:10855C0070127B685B6A9A4201D0012300E0002311
:10856C0018461837BD4680BD001002400070004010
:10857C006000424280B584B000AF786039607B689F
:10858C00002B01D10123D0E06A4B1B6803F00703D9
:10859C003A689A4210D9674B1B6823F00702654969
:1085AC003B6813430B60634B1B6803F007033A688B
:1085BC009A4201D00123B8E07B681B6803F00203E8
:1085CC00002B20D07B681B6803F00403002B05D024
:1085DC00594B5B68584A43F4E06353607B681B68F3
:1085EC0003F00803002B05D0534B5B68524A43F44D
:1085FC0060535360504B5B6823F0F0027B689B68C0
:10860C004D4913434B607B681B6803F00103002B3F
:10861C0040D07B685B68012B07D1474B1B6803F488
:10862C000033002B15D101237FE07B685B68022BA4
:10863C0007D1414B1B6803F00073002B09D10123B8
:10864C0073E03D4B1B6803F00203002B01D10123A7
:10865C006BE0394B5B6823F003027B685B6836493F
:10866C0013434B60FEF7B6FAF8600AE0FEF7B2FA75
:10867C000246FB68D31A41F28832934201D9032394
:10868C0053E02D4B5B6803F00C027B685B689B002E
:10869C009A42EBD1274B1B6803F007033A689A42C6
:1086AC0010D2244B1B6823F0070222493B6813436A
:1086BC000B60204B1B6803F007033A689A4201D009
:1086CC00012332E07B681B6803F00403002B08D005
:1086DC00194B5B6823F4E0627B68DB681649134333
:1086EC004B607B681B6803F00803002B09D0124B0E
:1086FC005B6823F460527B681B69DB000E491343F3
:10870C004B6000F021F802460B4B5B681B0903F031
:10871C000F030A49CB5C22FA03F3094A1360094B95
:10872C001B681846FEF714FA002318461037BD468E
:10873C0080BD00BF0020024000100240B4B400080D
:10874C00040000200800002090B48AB000AF2A4B2F
:10875C003C1D0FCB84E80F0040F201233B8000232B
:10876C00FB610023BB6100237B6200237B61002340
:10877C003B62224B5B68FB61FB6903F00C03042B2F
:10878C0002D0082B03D02DE01D4B3B622DE0FB6982
:10879C009B0C03F00F0307F12802134413F8243C3D
:1087AC007B61FB6903F48033002B13D0134B5B68A4
:1087BC005B0C03F0010307F12802134413F8283C67
:1087CC00BB617B690E4A02FB03F2BB69B2FBF3F39C
:1087DC007B6204E07B690B4A02FB03F37B627B6ADE
:1087EC003B6202E0064B3B6200BF3B6A18462837EF
:1087FC00BD4690BC704700BF94B400080010024006
:10880C0000127A0000093D0080B400AF024B1B68D7
:10881C001846BD4680BC70470400002080B500AFF0
:10882C00FFF7F2FF0246054B5B681B0A03F00703D8
:10883C000349CB5C22FA03F3184680BD00100240BA
:10884C00C4B4000880B500AFFFF7DEFF0246054B4D
:10885C005B68DB0A03F007030349CB5C22FA03F3E2
:10886C00184680BD00100240C4B4000880B485B026
:10887C0000AF78600A4B1B680A4AA2FB03235B0A11
:10888C007A6802FB03F3FB6000BFFB685A1EFA60B8
:10889C00002BF9D100BF00BF1437BD4680BC704718
:1088AC0004000020D34D621080B586B000AF786014
:1088BC0000233B610023FB607B681B6803F0010312
:1088CC00002B7DD00023FB754F4BDB6903F08053ED
:1088DC00002B0DD14C4BDB694B4A43F08053D361D9
:1088EC00494BDB6903F08053BB60BB680123FB750C
:1088FC00464B1B6803F48073002B18D1434B1B6849
:10890C00424A43F480731360FEF764F9386108E05F
:10891C00FEF760F902463B69D31A642B01D9032395
:10892C006DE03A4B1B6803F48073002BF0D0364B90
:10893C001B6A03F44073FB60FB68002B2ED07B6832
:10894C005B6803F44073FA689A4227D02E4B1B6A7B
:10895C0023F44073FB602E4B01221A602C4B002237
:10896C001A60294AFB681362FB6803F00103002BB1
:10897C0014D0FEF72FF938610AE0FEF72BF9024606
:10898C003B69D31A41F28832934201D9032336E072
:10899C001D4B1B6A03F00203002BEED01A4B1B6A13
:1089AC0023F440727B685B68174913430B62FB7DB1
:1089BC00012B05D1144BDB69134A23F08053D3618F
:1089CC007B681B6803F00203002B08D00E4B5B681E
:1089DC0023F440427B689B680B4913434B607B68D4
:1089EC001B6803F01003002B08D0074B5B6823F4C3
:1089FC0080027B68DB68044913434B6000231846F4
:108A0C001837BD4680BD00BF00100240007000400A
:108A1C004004424290B58DB000AF78605A4B07F1DC
:108A2C000C040FCB84E80F0040F201233B810023A0
:108A3C007B620023FB6200233B620023FB6100236B
:108A4C00BB627B68102B0AD07B68102B00F29180E4
:108A5C007B68012B4CD07B68022B7CD089E04B4B84
:108A6C005B68FB61494B1B6803F08073002B00F0C3
:108A7C008280FB699B0C03F00F0307F13002134457
:108A8C0013F8243C3B62FB6903F48033002B18D0B1
:108A9C003E4B5B685B0C03F0010307F1300213449F
:108AAC0013F8283C7B62FB6903F48033002B0DD058
:108ABC00374A7B6AB2FBF3F23B6A02FB03F3FB62BD
:108ACC0004E03B6A334A02FB03F3FB622F4B5B6807
:108ADC0003F48003B3F5800F02D1FB6ABB624AE05A
:108AEC00FB6A5B002C4AA2FB03235B08BB6242E0DF
:108AFC00264B1B6AFB61FB6903F44073B3F5807F63
:108B0C0008D1FB6903F00203002B03D04FF40043A0
:108B1C00BB621FE0FB6903F44073B3F5007F09D11E
:108B2C001A4B5B6A03F00203002B03D049F6404357
:108B3C00BB620FE0FB6903F44073B3F5407F1CD1BB
:108B4C00124B1B6803F40033002B16D04FF2244356
:108B5C00BB6212E011E0FFF775FE02460B4B5B683F
:108B6C009B0B03F0030301335B00B2FBF3F3BB621B
:108B7C0004E000BF02E000BF00E000BFBB6A184683
:108B8C003437BD4690BD00BFA4B4000800100240AD
:108B9C0000127A0000093D00ABAAAAAA80B582B0E7
:108BAC0000AF78607B68002B01D1012341E07B682A
:108BBC0093F83D30DBB2002B06D17B68002283F8A2
:108BCC003C207868FDF7FEFD7B68022283F83D208F
:108BDC007B681A687B6804331946104600F044FA27
:108BEC007B68012283F846207B68012283F83E20B3
:108BFC007B68012283F83F207B68012283F84020A8
:108C0C007B68012283F841207B68012283F8422093
:108C1C007B68012283F843207B68012283F844207F
:108C2C007B68012283F845207B68012283F83D2074
:108C3C00002318460837BD4680BD80B582B000AF12
:108C4C0078607B68002B01D1012341E07B6893F8AD
:108C5C003D30DBB2002B06D17B68002283F83C2030
:108C6C00786800F039F87B68022283F83D207B6835
:108C7C001A687B6804331946104600F0F5F97B68D6
:108C8C00012283F846207B68012283F83E207B6812
:108C9C00012283F83F207B68012283F840207B6807
:108CAC00012283F841207B68012283F842207B68F3
:108CBC00012283F843207B68012283F844207B68DF
:108CCC00012283F845207B68012283F83D20002394
:108CDC0018460837BD4680BD80B483B000AF7860BD
:108CEC0000BF0C37BD4680BC7047000080B584B017
:108CFC0000AF786039603B68002B09D17B6893F832
:108D0C003E30DBB2012B14BF01230023DBB222E087
:108D1C003B68042B09D17B6893F83F30DBB2012B05
:108D2C0014BF01230023DBB215E03B68082B09D1EB
:108D3C007B6893F84030DBB2012B14BF0123002376
:108D4C00DBB208E07B6893F84130DBB2012B14BF37
:108D5C0001230023DBB2002B01D001235EE03B6832
:108D6C00002B04D17B68022283F83E2013E03B6881
:108D7C00042B04D17B68022283F83F200BE03B6874
:108D8C00082B04D17B68022283F8402003E07B6827
:108D9C00022283F841207B681B680122396818463F
:108DAC0000F0E2FB7B681B681E4A934207D17B688C
:108DBC001B685A6C7B681B6842F400425A647B68DF
:108DCC001B68184A93420ED07B681B68B3F1804F26
:108DDC0009D07B681B68144A934204D07B681B68DB
:108DEC00124A934211D17B681B689B6803F00703FE
:108DFC00FB60FB68062B10D07B681B681A687B68CD
:108E0C001B6842F001021A6007E07B681B681A6855
:108E1C007B681B6842F001021A6000231846103769
:108E2C00BD4680BD002C01400004004000080040FD
:108E3C0080B584B000AFF860B9607A60FB6893F8D5
:108E4C003C30012B01D1022346E0FB68012283F860
:108E5C003C207B680C2B39D801A252F823F000BFC0
:108E6C00A18E0008D98E0008D98E0008D98E000872
:108E7C00AF8E0008D98E0008D98E0008D98E000854
:108E8C00BD8E0008D98E0008D98E0008D98E000836
:108E9C00CB8E0008FB681B68B968184600F046F9D1
:108EAC0015E0FB681B68B968184600F0A5F90EE0E0
:108EBC00FB681B68B968184600F008FA07E0FB6805
:108ECC001B68B968184600F06BFA00E000BFFB683D
:108EDC00002283F83C20002318461037BD4680BD85
:108EEC0080B584B000AF786039607B6893F83C3013
:108EFC00012B01D10223B3E07B68012283F83C20D3
:108F0C007B68022283F83D207B681B689B68FB60B2
:108F1C00FB6823F07703FB60FB6823F47F43FB6063
:108F2C007B681B68FA689A603B681B68B3F5005F46
:108F3C003ED0B3F5005F00F28780B3F5805F00F0A0
:108F4C008580B3F5805F7FD8702B1AD0702B7BD8BF
:108F5C00602B50D0602B77D8502B3CD0502B73D833
:108F6C00402B58D0402B6FD8302B64D0302B6BD883
:108F7C00202B60D0202B67D8002B5CD0102B5AD024
:108F8C0062E07B6818683B6899683B685A683B6884
:108F9C00DB6800F0CAFA7B681B689B68FB60FB68A7
:108FAC0043F07703FB607B681B68FA689A604EE0BD
:108FBC007B6818683B6899683B685A683B68DB6853
:108FCC0000F0B3FA7B681B689A687B681B6842F4F4
:108FDC0080429A603BE07B6818683B6859683B6844
:108FEC00DB681A4600F02AFA7B681B685021184689
:108FFC0000F081FA2BE07B6818683B6859683B6885
:10900C00DB681A4600F048FA7B681B68602118463A
:10901C0000F071FA1BE07B6818683B6859683B6884
:10902C00DB681A4600F00AFA7B681B684021184678
:10903C0000F061FA0BE07B681A683B681B68194604
:10904C00104600F058FA02E000BF00E000BF7B6859
:10905C00012283F83D207B68002283F83C2000230A
:10906C0018461037BD4680BD80B485B000AF78601F
:10907C0039607B681B68FB607B68294A93420BD084
:10908C007B68B3F1804F07D07B68264A934203D0AC
:10909C007B68254A934208D1FB6823F07003FB6080
:1090AC003B685B68FA681343FB607B681C4A93421D
:1090BC000BD07B68B3F1804F07D07B68194A934281
:1090CC0003D07B68184A934208D1FB6823F44073A1
:1090DC00FB603B68DB68FA681343FB60FB6823F0BA
:1090EC0080023B685B691343FB607B68FA681A601B
:1090FC003B689A687B68DA623B681A687B689A629C
:10910C007B68074A934203D13B681A697B681A63F0
:10911C007B6801225A6100BF1437BD4680BC704782
:10912C00002C0140000400400008004080B487B0CF
:10913C0000AF786039607B681B6A23F001027B68A2
:10914C001A627B681B6A7B617B685B683B617B682E
:10915C009B69FB60FB6823F07003FB60FB6823F0EA
:10916C000303FB603B681B68FA681343FB607B6975
:10917C0023F002037B613B689B687A6913437B6134
:10918C007B681C4A93420CD17B6923F008037B61FA
:10919C003B68DB687A6913437B617B6923F00403CA
:1091AC007B617B68134A934211D13B6923F4807332
:1091BC003B613B6923F400733B613B685B693A6933
:1091CC0013433B613B689B693A6913433B617B6882
:1091DC003A695A607B68FA689A613B685A687B689E
:1091EC005A637B687A691A6200BF1C37BD4680BC23
:1091FC00704700BF002C014080B487B000AF78608E
:10920C0039607B681B6A23F010027B681A627B68EA
:10921C001B6A7B617B685B683B617B689B69FB605D
:10922C00FB6823F4E043FB60FB6823F44073FB60B2
:10923C003B681B681B02FA681343FB607B6923F0D5
:10924C0020037B613B689B681B017A6913437B613C
:10925C007B681D4A93420DD17B6923F080037B61AF
:10926C003B68DB681B017A6913437B617B6923F0E4
:10927C0040037B617B68144A934213D13B6923F40E
:10928C0080633B613B6923F400633B613B685B6932
:10929C009B003A6913433B613B689B699B003A69AD
:1092AC0013433B617B683A695A607B68FA689A6140
:1092BC003B685A687B689A637B687A691A6200BF5C
:1092CC001C37BD4680BC7047002C014080B487B071
:1092DC0000AF786039607B681B6A23F480727B680E
:1092EC001A627B681B6A7B617B685B683B617B688D
:1092FC00DB69FB60FB6823F07003FB60FB6823F009
:10930C000303FB603B681B68FA681343FB607B69D3
:10931C0023F400737B613B689B681B027A691343DF
:10932C007B617B681D4A93420DD17B6923F40063FA
:10933C007B613B68DB681B027A6913437B617B6949
:10934C0023F480637B617B68144A934213D13B699D
:10935C0023F480533B613B6923F400533B613B682E
:10936C005B691B013A6913433B613B689B691B01B9
:10937C003A6913433B617B683A695A607B68FA68C7
:10938C00DA613B685A687B68DA637B687A691A62CF
:10939C0000BF1C37BD4680BC704700BF002C01408D
:1093AC0080B487B000AF786039607B681B6A23F4A7
:1093BC0080527B681A627B681B6A3B617B685B68C6
:1093CC007B617B68DB69FB60FB6823F4E043FB603B
:1093DC00FB6823F44073FB603B681B681B02FA6854
:1093EC001343FB603B6923F400533B613B689B6870
:1093FC001B033A6913433B617B680F4A934209D1C3
:10940C007B6923F480437B613B685B699B017A69D0
:10941C0013437B617B687A695A607B68FA68DA610E
:10942C003B685A687B681A647B683A691A6200BFA9
:10943C001C37BD4680BC7047002C014080B487B0FF
:10944C0000AFF860B9607A60FB681B6A7B61FB68EF
:10945C001B6A23F00102FB681A62FB689B693B6183
:10946C003B6923F0F0033B617B681B013A691343B2
:10947C003B617B6923F00A037B617A69BB68134308
:10948C007B61FB683A699A61FB687A691A6200BF72
:10949C001C37BD4680BC704780B487B000AFF86005
:1094AC00B9607A60FB681B6A23F01002FB681A62D1
:1094BC00FB689B697B61FB681B6A3B617B6923F4DE
:1094CC0070437B617B681B037A6913437B613B6947
:1094DC0023F0A0033B61BB681B013A6913433B615A
:1094EC00FB687A699A61FB683A691A6200BF1C379B
:1094FC00BD4680BC704780B485B000AF78603960E1
:10950C007B689B68FB60FB6823F07003FB603A6828
:10951C00FB68134343F00703FB607B68FA689A60AF
:10952C0000BF1437BD4680BC704780B487B000AF15
:10953C00F860B9607A603B60FB689B687B617B6913
:10954C0023F47F437B613B681A027B681A43BB6838
:10955C0013437A6913437B61FB687A699A6000BF95
:10956C001C37BD4680BC704780B487B000AFF86034
:10957C00B9607A60BB6803F01F03012202FA03F39F
:10958C007B61FB681A6A7B69DB431A40FB681A62D1
:10959C00FB681A6ABB6803F01F03796801FA03F3CE
:1095AC001A43FB681A6200BF1C37BD4680BC70476B
:1095BC0080B485B000AF786039607B6893F83C303C
:1095CC00012B01D1022346E07B68012283F83C2069
:1095DC007B68022283F83D207B681B685B68FB601C
:1095EC007B681B689B68BB60FB6823F07003FB60A7
:1095FC003B681B68FA681343FB607B681B68FA685E
:10960C005A607B681B68164A93420ED07B681B68B5
:10961C00B3F1804F09D07B681B68124A934204D087
:10962C007B681B68104A93420CD1BB6823F0800303
:10963C00BB603B685B68BA681343BB607B681B68A4
:10964C00BA689A607B68012283F83D207B6800220F
:10965C0083F83C20002318461437BD4680BC704765
:10966C00002C0140000400400008004080B485B08C
:10967C0000AF786039600023FB607B6893F83C3066
:10968C00012B01D102233DE07B68012283F83C20B1
:10969C00FB6823F0FF023B68DB681343FB60FB684D
:1096AC0023F440723B689B681343FB60FB6823F414
:1096BC0080623B685B681343FB60FB6823F40062C9
:1096CC003B681B681343FB60FB6823F480523B68C8
:1096DC001B691343FB60FB6823F400523B685B6916
:1096EC001343FB60FB6823F480423B68DB69134344
:1096FC00FB607B681B68FA685A647B68002283F8FD
:10970C003C20002318461437BD4680BC704780B5FA
:10971C0082B000AF78607B68002B01D101233FE061
:10972C007B6893F83D30DBB2002B06D17B680022BE
:10973C0083F83C207868FDF763F87B68242283F873
:10974C003D207B681B68DA687B681B6822F400523A
:10975C00DA60786800F026FD7B681B681A697B6804
:10976C001B6822F490421A617B681B685A697B68FB
:10977C001B6822F02A025A617B681B68DA687B68D6
:10978C001B6842F40052DA607B6800221A647B6822
:10979C00202283F83D207B68202283F83E20002382
:1097AC0018460837BD4680BD80B58AB002AFF86058
:1097BC00B9603B601346FB8000237B61FB6893F828
:1097CC003D30DBB2202B7CD1BB68002B02D0FB8858
:1097DC00002B01D1012375E0FB6893F83C30012B81
:1097EC0001D102236EE0FB68012283F83C20FB6868
:1097FC0000221A64FB68212283F83D20FDF7EAF968
:10980C007861FB68FA889A84FB68FA88DA84FB68CA
:10981C009B68B3F5805F08D1FB681B69002B04D1F2
:10982C000023FB61BB68BB6103E0BB68FB610023E9
:10983C00BB61FB68002283F83C202AE03B68009364
:10984C007B6900228021F86800F0D9FA0346002BCE
:10985C0001D0032336E0FB69002B0BD1BB691B88BD
:10986C001A46FB681B68C2F308025A60BB690233D4
:10987C00BB6107E0FB691A78FB681B685A60FB69DF
:10988C000133FB61FB68DB8C9BB2013B9AB2FB683A
:10989C00DA84FB68DB8C9BB2002BCFD13B68009346
:1098AC007B6900224021F86800F0A9FA0346002BDE
:1098BC0001D0032306E0FB68202283F83D2000231F
:1098CC0000E0022318462037BD4680BD80B58AB023
:1098DC0002AFF860B9603B601346FB8000237B61EC
:1098EC00FB6893F83E30DBB2202B40F08C80BB68D9
:1098FC00002B02D0FB88002B01D1012384E0FB68F4
:10990C0093F83C30012B01D102237DE0FB6801224E
:10991C0083F83C20FB6800221A64FB68222283F83F
:10992C003E20FB6800221A63FDF754F97861FB684E
:10993C00FA889A85FB68FA88DA85FB689B68B3F528
:10994C00805F08D1FB681B69002B04D10023FB61ED
:10995C00BB68BB6103E0BB68FB610023BB61FB68B8
:10996C00002283F83C2043E03B6800937B69002293
:10997C002021F86800F043FA0346002B01D00323A2
:10998C0042E0FB69002B0CD1FB681B685B689BB247
:10999C00C3F308039AB2BB691A80BB690233BB617B
:1099AC001FE0FB689B68B3F5805F07D0FB689B6882
:1099BC00002B0AD1FB681B69002B06D1FB681B68C6
:1099CC005B68DAB2FB691A7008E0FB681B685B68BD
:1099DC00DBB203F07F03DAB2FB691A70FB69013367
:1099EC00FB61FB68DB8D9BB2013B9AB2FB68DA85AD
:1099FC00FB68DB8D9BB2002BB6D1FB68202283F871
:109A0C003E20002300E0022318462037BD4680BDCF
:109A1C0080B584B000AFF860B9601346FB80FB687A
:109A2C0093F83E30DBB2202B1DD1BB68002B02D04B
:109A3C00FB88002B01D1012316E0FB6893F83C3026
:109A4C00012B01D102230FE0FB68012283F83C209B
:109A5C00FB6800221A63FB881A46B968F86800F0A4
:109A6C0018FA034600E0022318461037BD4680BDA5
:109A7C0080B58AB000AF78607B681B681B687B621E
:109A8C007B681B68DB683B627B681B685B69FB61FE
:109A9C000023BB6100237B617B6A03F00F03BB6176
:109AAC00BB69002B0DD17B6A03F02003002B08D07F
:109ABC003B6A03F02003002B03D0786800F0C9FA4E
:109ACC007BE1BB69002B00F0B180FB6903F0010363
:109ADC00002B05D13B6A03F49073002B00F0A68099
:109AEC007B6A03F00103002B0AD03B6A03F48073FA
:109AFC00002B05D07B681B6C43F001027B681A6459
:109B0C007B6A03F00403002B0AD0FB6903F001030A
:109B1C00002B05D07B681B6C43F002027B681A6437
:109B2C007B6A03F00203002B0AD0FB6903F00103EC
:109B3C00002B05D07B681B6C43F004027B681A6415
:109B4C007B6A03F00803002B0FD03B6A03F0200361
:109B5C00002B04D1FB6903F00103002B05D07B68BB
:109B6C001B6C43F008027B681A647B681B6C002B2F
:109B7C0000F01E817B6A03F02003002B07D03B6AA8
:109B8C0003F02003002B02D0786800F062FA7B68A7
:109B9C001B685B6903F04003002B14BF01230023F7
:109BAC00DBB27B617B681B6C03F00803002B02D1DA
:109BBC007B69002B31D0786800F0A4F97B681B68B6
:109BCC005B6903F04003002B23D07B681B685A6948
:109BDC007B681B6822F040025A617B689B6B002BF0
:109BEC0013D07B689B6B764A5A637B689B6B1846D9
:109BFC00FDF70CFE0346002B16D07B689B6B5B6B52
:109C0C007A68926B104698470EE0786800F0E3F89B
:109C1C000AE0786800F0DFF806E0786800F0DBF81E
:109C2C007B6800221A64C3E000BFC1E07B681B6B39
:109C3C00012B40F0A1807B6A03F01003002B00F095
:109C4C009B803B6A03F01003002B00F095800023EF
:109C5C00FB607B681B681B68FB607B681B685B6830
:109C6C00FB60FB687B681B685B6903F04003002B9F
:109C7C004ED07B689B6B1B685B683B823B8A002BDE
:109C8C0000F098807B689B8D3A8A9A4280F0928093
:109C9C007B683A8ADA857B689B6B9B69202B2BD07F
:109CAC007B681B68DA687B681B6822F48072DA6058
:109CBC007B681B685A697B681B6822F001025A6139
:109CCC007B681B685A697B681B6822F040025A61EA
:109CDC007B68202283F83E207B6800221A637B6815
:109CEC001B68DA687B681B6822F01002DA607B68FC
:109CFC009B6B1846FDF74FFD7B689A8D7B68DB8D5F
:109D0C009BB2D31A9BB21946786800F06DF851E0FB
:109D1C007B689A8D7B68DB8D9BB2D31A7B827B68C8
:109D2C00DB8D9BB2002B47D07B8A002B44D07B6809
:109D3C001B68DA687B681B6822F49072DA607B68B7
:109D4C001B685A697B681B6822F001025A617B68A8
:109D5C00202283F83E207B6800221A637B681B68F4
:109D6C00DA687B681B6822F01002DA607B8A19467D
:109D7C00786800F039F81FE07B6A03F08003002B51
:109D8C0008D03B6A03F08003002B03D0786800F006
:109D9C00F9F812E07B6A03F04003002B0DD03B6A0C
:109DAC0003F04003002B08D0786800F03AF904E087
:109DBC0000BF02E000BF00E000BF2837BD4680BDF9
:109DCC00699F000880B483B000AF786000BF0C3787
:109DDC00BD4680BC704780B483B000AF786000BFD4
:109DEC000C37BD4680BC704780B483B000AF786040
:109DFC000B467B8000BF0C37BD4680BC704780B5DE
:109E0C0084B000AFF860B9603B601346FB712CE086
:109E1C00BB69B3F1FF3F28D0BB69002B07D0FCF71F
:109E2C00D9FE02463B68D31ABA699A421DD2FB6826
:109E3C001B68DA68FB681B6822F4D072DA60FB6876
:109E4C001B685A69FB681B6822F001025A61FB68A7
:109E5C00202283F83D20FB68202283F83E20FB68FB
:109E6C00002283F83C2003230FE0FB681B681A6870
:109E7C00BB681340BA689A420CBF01230023DBB2C3
:109E8C001A46FB799A42C3D0002318461037BD46B8
:109E9C0080BD80B485B000AFF860B9601346FB801C
:109EAC00FB68BA689A62FB68FA889A85FB68FA883C
:109EBC00DA85FB6800221A64FB68222283F83E20B4
:109ECC00FB68002283F83C20FB681B68DA68FB689F
:109EDC001B6842F48072DA60FB681B685A69FB6885
:109EEC001B6842F001025A61FB681B68DA68FB6868
:109EFC001B6842F02002DA60002318461437BD4676
:109F0C0080BC704780B483B000AF78607B681B68FE
:109F1C00DA687B681B6822F49072DA607B681B68D5
:109F2C005A697B681B6822F001025A617B681B6BC3
:109F3C00012B07D17B681B68DA687B681B6822F0F1
:109F4C001002DA607B68202283F83E207B680022B6
:109F5C001A6300BF0C37BD4680BC704780B584B017
:109F6C0000AF78607B685B6AFB60FB680022DA8577
:109F7C00FB680022DA84F868FFF72DFF00BF10376A
:109F8C00BD4680BD80B485B000AF78607B6893F827
:109F9C003D30DBB2212B3ED17B689B68B3F5805FF3
:109FAC0014D17B681B69002B10D17B681B6AFB608A
:109FBC00FB681B881A467B681B68C2F308025A6050
:109FCC007B681B6A9A1C7B681A6208E07B681B6AB8
:109FDC00591C7A6811621A787B681B685A607B6816
:109FEC00DB8C9BB2013B9BB27A681946D184002B67
:109FFC000FD17B681B68DA687B681B6822F08002D3
:10A00C00DA607B681B68DA687B681B6842F0400288
:10A01C00DA60002300E0022318461437BD4680BCEA
:10A02C00704780B582B000AF78607B681B68DA68D7
:10A03C007B681B6822F04002DA607B68202283F880
:10A04C003D207868FFF7BEFE002318460837BD4652
:10A05C0080BD80B586B000AF78607B6893F83E30E9
:10A06C00DBB2222B40F099807B689B68B3F5805F54
:10A07C0017D17B681B69002B13D100237B617B6894
:10A08C009B6A3B617B681B685B689BB2C3F30803EC
:10A09C009AB23B691A807B689B6A9A1C7B689A62AD
:10A0AC0026E07B689B6A7B6100233B617B689B6835
:10A0BC00B3F5805F07D07B689B68002B0AD17B6867
:10A0CC001B69002B06D17B681B685B68DAB27B6965
:10A0DC001A7008E07B681B685B68DBB203F07F03D7
:10A0EC00DAB27B691A707B689B6A5A1C7B689A622D
:10A0FC007B68DB8D9BB2013B9BB27A681946D1859C
:10A10C00002B48D17B681B68DA687B681B6822F0DF
:10A11C002002DA607B681B68DA687B681B6822F4B3
:10A12C008072DA607B681B685A697B681B6822F056
:10A13C0001025A617B68202283F83E207B681B6BEE
:10A14C00012B23D17B6800221A637B681B68DA68B9
:10A15C007B681B6822F01002DA607B681B681B6846
:10A16C0003F01003102B0AD10023FB607B681B68E3
:10A17C001B68FB607B681B685B68FB60FB687B682B
:10A18C009B8D19467868FFF72FFE02E07868FCF784
:10A19C00A5F8002302E0002300E00223184618373C
:10A1AC00BD4680BD80B584B000AF78607B681B680D
:10A1BC001B6923F440517B68DA687B681B680A438F
:10A1CC001A617B689A687B681B691A437B685B69B8
:10A1DC001343BB607B681B68DB6823F4B05323F02C
:10A1EC000C037A681268B9680B43D3607B681B68F0
:10A1FC005B6923F440717B689A697B681B680A432E
:10A20C005A617B681B682C4A934203D1FEF71AFBF8
:10A21C00F86002E0FEF702FBF860FA6813469B0058
:10A22C0013449A001A447B685B689B00B2FBF3F3FF
:10A23C00224AA2FB03235B091901FA6813469B000F
:10A24C0013449A001A447B685B689B00B2FBF3F2E0
:10A25C001A4BA3FB02035B09642000FB03F3D31A24
:10A26C001B013233154AA2FB03235B0903F0F003F5
:10A27C001944FA6813469B0013449A001A447B68ED
:10A28C005B689B00B2FBF3F20C4BA3FB02035B0974
:10A29C00642000FB03F3D31A1B013233074AA2FBE1
:10A2AC0003235B0903F00F027B681B680A449A6066
:10A2BC0000BF1037BD4680BD003801401F85EB51F3
:10A2CC00014B1868704700BF1000002070B50026C5
:10A2DC000C4D0D4C641BA410A64209D100F0F8FFE4
:10A2EC0000260A4D0A4C641BA410A64205D170BD71
:10A2FC0055F8043B98470136EEE755F8043B984770
:10A30C000136F2E764B5000864B5000864B50008CE
:10A31C0068B5000803460244934200D1704703F825
:10A32C00011BF9E70FB40A4B13B51C6824B1A369E0
:10A33C0013B9204600F05EFA05AB2046049AA168DA
:10A34C00019300F029FC02B0BDE8104004B0704746
:10A35C001000002070B50E46054618B183690BB984
:10A36C0000F048FAAB69AC6813B9284600F042FA21
:10A37C002C4B9C4220D16C68636EDB0705D4A389FF
:10A38C00980502D4A06D00F0D3FAA38919071DD546
:10A39C002369DBB1013EA36816F8011F013BA360E2
:10A3AC0039BB002B38DA22460A21284600F048F83F
:10A3BC00013011D00A2511E01B4B9C4201D1AC6835
:10A3CC00DAE71A4B9C4208BFEC68D5E721462846D1
:10A3DC0000F088F80028DDD04FF0FF35636EDA0707
:10A3EC0005D4A3899B0502D4A06D00F0A2FA2846DF
:10A3FC0070BD002B04DAA2699A4206DC0A2904D04B
:10A40C0023685A1C22601970C5E72246284600F0C2
:10A41C0017F80130BFD1DFE70A2523685A1C2260E8
:10A42C001D70DBE7F0B4000810B50008D0B40008CC
:10A43C00024B01461868FFF78DBF00BF10000020CB
:10A44C00F8B50E461446054618B183690BB900F0F1
:10A45C00D1F9214B9C422BD16C68A369A360A389D1
:10A46C001A072FD523696BB323692068F6B2C01A7B
:10A47C0063693746834204DC2146284600F026F9FE
:10A48C0030BBA3680130013BA36023685A1C2260D7
:10A49C001E706369834204D0A389DB0706D50A2E9C
:10A4AC0004D12146284600F011F988B93846F8BD88
:10A4BC000A4B9C4201D1AC68CFE7094B9C4208BFC8
:10A4CC00EC68CAE72146284600F00CF80028CBD0EF
:10A4DC004FF0FF37EAE700BFF0B4000810B50008F2
:10A4EC00D0B40008324B70B51D6806460C4625B139
:10A4FC00AB6913B9284600F07DF92E4B9C420FD165
:10A50C006C68A389B4F90C2019072CD4DD0611D47E
:10A51C000923336042F040034FF0FF30A3813EE04B
:10A52C00254B9C4201D1AC68EBE7244B9C4208BF05
:10A53C00EC68E6E7580712D5616B41B104F14403AE
:10A54C00994202D0304600F059FA00236363A38984
:10A55C0023F02403A3810023636023692360A38970
:10A56C0043F00803A38123694BB9A38903F4207337
:10A57C00B3F5007F03D02146304600F0FFF9A089E7
:10A58C00B4F90C2010F001030AD00023A360636916
:10A59C005B42A361236943B910F08000BAD170BD4E
:10A5AC00810758BF6369A360F4E70020F7E700BF99
:10A5BC0010000020F0B4000810B50008D0B400085A
:10A5CC008A892DE9F041054610070C4658D44B6892
:10A5DC00002B05DC0B6C002B02DC0020BDE8F081AD
:10A5EC00E66A002EF9D0002312F480522F682B60FB
:10A5FC0032D0606DA3895A0705D56368C01A636BA6
:10A60C000BB1236CC01A00230246E66A2846216A65
:10A61C00B047431CA38906D129681D292CD82A4A86
:10A62C00CA40D60728D5002262602269D90422606C
:10A63C0004D5421C01D12B6803B96065616B2F6096
:10A64C000029CAD004F14403994202D0284600F0F4
:10A65C00D5F900206063C1E7216A01232846B04781
:10A66C00411CC7D12B68002BC4D01D2B01D0162B3D
:10A67C0001D12F60B1E7A38943F04003A381ADE77B
:10A68C000F69002FA9D0930718BF00230E6808BFCD
:10A69C004B69A6EB07080F608B60B8F1000F9CDDCF
:10A6AC0043463A462846216AA66AB047002806DC8B
:10A6BC00A3894FF0FF3043F04003A3818EE707449A
:10A6CC00A8EB0008E9E700BF0100402038B50B6992
:10A6DC0005460C4613B90025284638BD18B18369C8
:10A6EC000BB900F087F8144B9C421BD16C68B4F981
:10A6FC000C30002BEFD0626ED00704D4990502D435
:10A70C00A06D00F015F928462146FFF759FF636E3E
:10A71C000546DA07E0D4A3899B05DDD4A06D00F0D3
:10A72C0008F9D9E7054B9C4201D1AC68DFE7044B33
:10A73C009C4208BFEC68DAE7F0B4000810B50008DA
:10A74C00D0B40008002310B50446C0E90033C0E9BA
:10A75C000433836081814366C28183611946082278
:10A76C005C30FFF7D7FD054B24626362044BA36298
:10A77C00044BE362044B236310BD00BF51B10008CE
:10A78C0073B10008ABB10008CFB10008014900F06B
:10A79C00AFB800BFD9A6000870B568254A1E55434E
:10A7AC000E4605F1740100F075F9044640B1002124
:10A7BC00C0E900160C30A06005F16802FFF7AAFD95
:10A7CC00204670BD014800F0B3B800BFE80100207E
:10A7DC00014800F0AEB800BFE8010020014800F0CD
:10A7EC00A7B800BFE3010020014800F0A2B800BFE9
:10A7FC00E301002010B50446FFF7F0FFA3691BB17D
:10A80C00BDE81040FFF7F0BFC4E912332365134BCA
:10A81C00134A1B68A262A34208BF0123204608BF4B
:10A82C00A36100F01FF86060204600F01BF8A060E8
:10A83C00204600F017F800220421E0606068FFF762
:10A84C0081FF01220921A068FFF77CFF022212215F
:10A85C00E068FFF777FF0123A361D1E7CCB40008D0
:10A86C0099A70008F8B50746FFF7ACFF1E4B1E680A
:10A87C00B36913B93046FFF7BDFF4836D6E901344A
:10A88C00013B03D533680BB33668F7E7B4F90C50CA
:10A89C00D5B9164B04F15800E360656600F047F833
:10A8AC00FFF796FF08222946C4E90155C4E904556F
:10A8BC002560A56104F15C00FFF72CFDC4E90D5582
:10A8CC00C4E912552046F8BD6834D9E7042138464E
:10A8DC00FFF762FF044630600028D5D1FFF778FF00
:10A8EC000C233B60EEE700BFCCB400080100FFFF77
:10A8FC002DE9F84306468846002700F14804D4E9C0
:10A90C000195B9F1010905D52468002CF7D1384619
:10A91C00BDE8F883AB89012B07D9B5F90E300133AB
:10A92C0003D029463046C04707436835E9E77047EE
:10A93C007047704770B50E46B1F90E1014460029D9
:10A94C001D4696B007DA00232B60B3891A0610D483
:10A95C004FF480630EE06A4600F05AFC0028F2DBEC
:10A96C00019A02F47042A2F500535A425A412A60ED
:10A97C00EEE740230020236016B070BD8B8973B5C1
:10A98C009D0706460C4607D504F147032360236157
:10A99C000123636102B070BD6A4601ABFFF7CAFFC9
:10A9AC0000990546304600F075F848B9B4F90C30FA
:10A9BC009A05EFD423F0030343F00203A381E3E7EA
:10A9CC000D4BB362A389206043F08003A381009BED
:10A9DC0020616361019B5BB13046B4F90E1000F04D
:10A9EC0029FC28B1A38923F0030343F00103A381BD
:10A9FC00A0890543A581CDE799A7000838B5054680
:10AA0C00002943D051F8043C0C1F002BB8BFE418AC
:10AA1C0000F040FC1E4A1368104633B963601460A2
:10AA2C002846BDE8384000F03BBCA3420AD9216857
:10AA3C006218934201BF1A685B6852182260636007
:10AA4C000460EDE71A465B680BB1A342FAD91168B2
:10AA5C005018A0420BD12068014450188342116059
:10AA6C00DED118685B68014411605360D8E702D9E5
:10AA7C000C232B60D4E7206821188B4201BF196886
:10AA8C005B680918216063605460C9E738BD00BF7A
:10AA9C00A0000020F8B5CD1C25F0030508350C2DC1
:10AAAC0038BF0C25002D064601DBA94203D90C2327
:10AABC0033600020F8BD00F0EDFB21490A68144614
:10AACC009CB9204F3B6823B92146304600F02AFB45
:10AADC0038602946304600F025FB431C23D10C235B
:10AAEC003046336000F0DCFBE3E723685B1B17D4D4
:10AAFC000B2B03D923601C44256004E06368A2423D
:10AB0C000CBF0B605360304600F0CAFB04F10B0025
:10AB1C00231D20F00700C21ACCD01B1AA350C9E782
:10AB2C0022466468CCE7C41C24F00304A042E3D0A2
:10AB3C00211A304600F0F6FA0130DDD1CFE700BF24
:10AB4C00A0000020A4000020936810B4013B002B4F
:10AB5C00936007DA9469A34201DB0A2902D110BC85
:10AB6C00FFF76EBC1368581C10601970084610BCB7
:10AB7C007047F8B506460F461446D518AC4201D1BD
:10AB8C00002007E03A46304614F8011BFFF7DCFFC3
:10AB9C00431CF3D1F8BD00002DE9F04F0D461446CF
:10ABAC00984606469DB018B183690BB9FFF722FE93
:10ABBC00894B9D421BD175686B6ED90705D4AB8947
:10ABCC009A0502D4A86DFFF7B3FEAB891B0701D51C
:10ABDC002B69EBB929463046FFF784FCC0B16B6E8C
:10ABEC00DC070ED54FF0FF301DB0BDE8F08F7B4B6E
:10ABFC009D4201D1B568DFE7794B9D4208BFF568EE
:10AC0C00DAE7AB899805EDD4A86DFFF792FEE9E77A
:10AC1C000023099320238DF8293030234FF00109AC
:10AC2C00CDF80C80DFF8BC818DF82A3023469A468B
:10AC3C0013F8012B0AB1252AF9D1BAEB040B0BD06E
:10AC4C005B46224629463046FFF793FF013000F061
:10AC5C00AA80099A5A4409929AF80030002B00F005
:10AC6C00A28000234FF0FF32CDE905230AF1010A3F
:10AC7C00049307938DF853301A935446052214F815
:10AC8C00011B584800F0F8FA049AD8B9D10644BF11
:10AC9C0020238DF85330130744BF2B238DF85330EA
:10ACAC009AF800302A2B15D0544600204FF00A0C8D
:10ACBC00079A214611F8013B303B092B4ED9B0B114
:10ACCC00079214E0A0EB080309FA03F31343A2461E
:10ACDC000493D2E7039B191D1B680391002BBBBF88
:10ACEC005B4242F0020207930793B8BF04922378A9
:10ACFC002E2B0CD163782A2B35D1039B02341A1DD1
:10AD0C001B680392002BB8BF4FF0FF330593DFF89D
:10AD1C00E4A003225046217800F0AEFA40B1402363
:10AD2C00A0EB0A0003FA00F0049B013403430493E4
:10AD3C0014F8011B06222C488DF8281000F09CFA00
:10AD4C0000283FD0294B1BBB039B073323F0070381
:10AD5C0008330393099B3B44099367E70C46012096
:10AD6C000CFB0232A5E700234FF00A0C1946013404
:10AD7C000593204610F8012B303A092A03D9002BF1
:10AD8C00C5D00591C3E7044601230CFB0121F0E774
:10AD9C0003AB00932A463046154B04A9AFF3008051
:10ADAC000746781CD6D16B6ED90705D4AB899A05AA
:10ADBC0002D4A86DFFF7BDFDAB895B063FF512AF62
:10ADCC00099811E703AB00932A463046084B04A9B7
:10ADDC0000F082F8E4E700BFF0B4000810B50008FA
:10ADEC00D0B4000830B500083AB5000800000000E7
:10ADFC007FAB000836B500082DE9F047164699469A
:10AE0C008A680B6907469342B8BF1346336091F8C2
:10AE1C0043200C46DDF820800AB1013333602368EF
:10AE2C00990642BF336802333360256815F0060576
:10AE3C0006D104F1190AE36832689B1AAB4228DC8C
:10AE4C0094F84320131E226818BF012392062DD4B8
:10AE5C004946384604F14302C047013020D02368EC
:10AE6C00E56803F00603042B18BF002532684FF089
:10AE7C000006A36808BFAD1A226908BF25EAE5756C
:10AE8C009342C4BF9B1AED181A34B5421AD1002054
:10AE9C0008E00123524649463846C047013003D1E9
:10AEAC004FF0FF30BDE8F0870135C4E73020E118E2
:10AEBC0081F843005A1C94F845102244023382F85E
:10AECC004310C5E70123224649463846C0470130A6
:10AEDC00E6D00136D9E700002DE9FF470C46277E66
:10AEEC009146782F80469A460C9904F1430207D874
:10AEFC00622F0AD8002F00F0D980582F00F0A480C0
:10AF0C0004F1420684F842703AE0A7F16303152B72
:10AF1C00F6D801A050F823F07DAF000891AF0008DF
:10AF2C000DAF00080DAF00080DAF00080DAF000805
:10AF3C0091AF00080DAF00080DAF00080DAF000871
:10AF4C000DAF00089FB00008C1AF000881B0000829
:10AF5C000DAF00080DAF0008C1B000080DAF000820
:10AF6C00C1AF00080DAF00080DAF000889B0000894
:10AF7C000B6804F142061A1D1B680A6084F8423003
:10AF8C000123A4E0256808682E0600F104030AD505
:10AF9C0005680B60002D03DA2D236D4284F84330D5
:10AFAC000A235E4819E015F0400F05680B6018BFC6
:10AFBC002DB2EFE70B682568181D0860280601D52F
:10AFCC001D6802E06906FBD51D886F2F0CBF082396
:10AFDC000A235248002184F843106668002EA8BF4B
:10AFEC002168A660A4BF21F0040121600DB9002ED8
:10AFFC004DD01646B5FBF3F103FB1157C75D06F8B0
:10B00C00017D2F46BB420D46F4D9082B0BD123688A
:10B01C00DF0708D5236961689942DEBF302306F843
:10B02C00013C06F1FF36921B22614B4621464046FD
:10B03C00CDF800A003AAFFF7DFFE01304CD14FF092
:10B04C00FF3004B0BDE8F087344884F845700E68D2
:10B05C00236856F8045B1F060E6014D5D90744BF4D
:10B06C0043F0200323601DB9236823F020032360E1
:10B07C001023AFE7236843F020032360782328488C
:10B08C0084F84530E3E75E0648BFADB2E6E7164606
:10B09C00BBE70B6826681D1D60690D6035061B68D3
:10B0AC0001D5186002E07106FBD518800023164606
:10B0BC002361BAE70B681A1D0A601E68002130462E
:10B0CC00626800F0D9F808B1801B60606368236186
:10B0DC00002384F84330A8E73246494640462369AA
:10B0EC00D0470130ABD023689B0713D4E068039B97
:10B0FC009842B8BF1846A4E7012332464946404659
:10B10C00D04701309BD00135E36803995B1AAB4201
:10B11C00F2DCEBE7002504F11906F5E741B5000870
:10B12C0052B5000838B50023054D044608462B607F
:10B13C00FBF778FC431C02D12B6803B1236038BDAC
:10B14C00EC01002010B50C46B1F90E1000F0AEF871
:10B15C000028ABBF636DA3891B1823F48053ACBFCD
:10B16C006365A38110BD2DE9F0411F468B8905460F
:10B17C00DB050C46164605D502230022B1F90E104C
:10B18C0000F068F8A389324623F48053A381284643
:10B19C003B46B4F90E10BDE8F04100F017B810B5FD
:10B1AC000C46B1F90E1000F055F8431CA38915BFDD
:10B1BC00606523F4805343F48053A38118BFA381AB
:10B1CC0010BDB1F90E1000F013B8000038B50446EC
:10B1DC00084611460022054D2A601A46FBF75AFA1A
:10B1EC00431C02D12B6803B1236038BDEC01002055
:10B1FC0038B50023054D044608462B60FBF7E1FBF0
:10B20C00431C02D12B6803B1236038BDEC01002034
:10B21C0038B50023064D0446084611462B60FBF753
:10B22C00DBFB431C02D12B6803B1236038BD00BF8C
:10B23C00EC01002038B50023054D044608462B6070
:10B24C00FBF7D9FB431C02D12B6803B1236038BD3B
:10B25C00EC01002038B50446084611460022054D85
:10B26C002A601A46FBF7D1FB431C02D12B6803B1B1
:10B27C00236038BDEC010020034610B5C9B202446E
:10B28C009342184601D1002003E0047801338C422C
:10B29C00F6D110BD0148FFF74BBB00BFE401002005
:10B2AC000148FFF746BB00BFE401002038B5044657
:10B2BC00084611460022054D2A601A46FBF764FB2E
:10B2CC00431C02D12B6803B1236038BDEC01002074
:10B2DC00F8B500BFF8BC08BC9E467047F8B500BF77
:08B2EC00F8BC08BC9E46704747
:10B2F4007263632D3E637372203D20256C750A00D2
:10B3040048414C5F554152545F527843706C7443CA
:10B31400616C6C6261636B20633D25750000000005
:10B3240030203D2025643B2031203D2025643B20F6
:10B3340032203D2025643B2063203D2025643B0AC8
:10B34400000000000A73656E64696E6720435552FD
:10B3540052454E54206C6576656C203D2025643B37
:10B364000A0000000A73656E64696E67204C4544E8
:10B37400205354415445203D2025643B0A000000DD
:10B384000A73656E64696E67204F4E206C6576653E
:10B394006C203D2025643B0A000000000A73656EA2
:10B3A40064696E67204F4646206C6576656C203D67
:10B3B4002025643B0A0000000A67657474696E679F
:10B3C400204E4557204F4E206C6576656C203D20FD
:10B3D40025643B0A000000000A67657474696E679F
:10B3E400204E4557204F4646206C6576656C203DBF
:10B3F4002025643B0A0000000A67657474696E675F
:10B4040020424F4F544C4F414445523B00000000F2
:10B414000A676F696E6720424F4F544C4F41444551
:10B42400520000000A48414C5F464C4153485F506B
:10B43400726F6772616D5F6572726F7200000000F7
:10B444000A48414C5F464C41534845785F45726118
:10B4540073655F6572726F72000000000A64617444
:10B46400615F6572726F72000A48414C5F554152C8
:10B47400545F526563656976655F6572726F7200C9
:10B484000A637572724C6576656C3D257500000023
:10B4940002030405060708090A0B0C0D0E0F101011
:10B4A40002030405060708090A0B0C0D0E0F101001
:10B4B4000000000000000000010203040607080960
:10B4C400000000000102030414000020000000003A
:10B4D4000000000000000000000000000000000068
:10B4E4000000000000000000000000000000000058
:10B4F4000000000000000000000000000000000048
:10B504000000000000000000000000000000000037
:10B514000000000000000000000000000000000027
:10B52400000000000000000000000000232D302B6C
:10B534002000686C4C006566674546470030313230
:10B544003334353637383941424344454600303187
:10B5540032333435363738396162636465660000E6
:04B56400315D00084D
:04B568000D5D00086D
:10B56C00010012140024F40010000000010000007F
:10B57C001400002000000000F0B4000810B5000812
:10B58C00D0B4000800000000000000000000000023
:10B59C00000000000000000000000000000000009F
:10B5AC00000000000000000000000000000000008F
:10B5BC00000000000000000000000000000000007F
:10B5CC00000000000000000000000000000000006F
:04B5DC00000000006B
:0400000508006A9DE8
:00000001FF
